:020000040800F2
:1000000000040020050100089B030008930300087A
:10001000970300084D0100081105000800000000CA
:10002000000000000000000000000000C103000804
:1000300051010008000000009D030008AD04000805
:100040001F0100081F0100081F0100081F01000810
:100050001F0100081F010008E90100081F01000836
:100060001F0100081F0100081F0100081F010008F0
:100070001F0100081F0100081F0100081F010008E0
:100080001F0100081F0100081F0100081F010008D0
:100090001F0100081F0100081F0100081F010008C0
:1000A0001F0100081F0100081F0100081F010008B0
:1000B0001F0100081F0100081F0100081F010008A0
:1000C0001F0100081F0100081F0100081F01000890
:1000D0001F0100081F0100081F0100081F01000880
:1000E0001F0100081F0100081F010008DFF810D0E1
:1000F00000F01AF80048004733050008AFF300800D
:10010000000400200648804706480047FEE7FEE757
:10011000FEE7FEE7FEE7FEE7FEE7FEE7FEE7FEE7B7
:10012000B1040008ED000008064C074D06E0E06849
:1001300040F0010394E8070098471034AC42F6D32E
:10014000FFF7D8FF440500085405000800BFFEE78C
:10015000704700001F48006840F001001D4908601A
:100160001D48806940F001001B4988611B48806878
:1001700020F00F001949886016480C38006820F0FC
:10018000010014490C390860081D006840F00100A6
:10019000091D0860081D006820F00100091D0860A5
:1001A0000C481038006820F001000A491039086036
:1001B000081F006840F00100091F0860002008497E
:1001C00008700848006840F040004FF0E021C1F896
:1001D000000170471404014000100240000001407B
:1001E00000E400E000E100E010B50A48006800F01B
:1001F000010068B107481438006800F0010038B108
:100200004FF40051044800F0C2F8012000F006F855
:1002100010BD0000140401400010014001490860B5
:10022000704700001404014008B510208DF8030049
:100230004002ADF8000003208DF8020001211020DB
:1002400000F0AEF86946024800F016F808BD00005C
:100250000010014008B548208DF803000120ADF8DA
:1002600000000121042000F09BF86946014800F0DD
:1002700003F808BD000801402DE9F04102460025C1
:100280000026002000230024002791F803C00CF072
:100290000F0591F803C00CF0100CBCF1000F03D057
:1002A00091F802C04CEA050591F800C0BCF1000FBE
:1002B00031D0146800202BE04FF0010C0CFA00F351
:1002C000B1F800C00CEA03069E4220D183004FF033
:1002D0000F0C0CFA03F7BC4305FA03FC4CEA0404C8
:1002E00091F803C0BCF1280F06D14FF0010C0CFAB5
:1002F00000FCC2F814C00AE091F803C0BCF1480F3A
:1003000005D14FF0010C0CFA00FCC2F810C0401CE3
:100310000828D1D31460B1F800C0BCF1FF0F34DD60
:10032000546800202EE000F1080C4FF0010808FA94
:100330000CF3B1F800C00CEA03069E4221D1830001
:100340004FF00F0C0CFA03F7BC4305FA03FC4CEA20
:10035000040491F803C0BCF1280F05D100F1080C8A
:1003600008FA0CF8C2F8148091F803C0BCF1480FE9
:1003700007D100F1080C4FF0010808FA0CF8C2F898
:100380001080401C0828CED35460BDE8F081016184
:10039000704700BFFEE700BFFEE7704770470000F0
:1003A00029B1064A92690243044B9A6104E0034A68
:1003B00092698243014B9A6170470000001002402D
:1003C000704710B500F002F810BD00000CB5002019
:1003D000019000903348006840F480303149086053
:1003E00000BF3048006800F4003000900198401CC5
:1003F0000190009818B90198B0F5A06FF1D1294883
:10040000006800F4003010B10120009001E00020ED
:1004100000900098012843D12348006840F0100064
:10042000214908600846006820F00300086008467B
:10043000006840F0020008601A48406819494860A6
:100440000846406848600846406840F4806048605C
:100450000846406820F47C1048600846406840F434
:10046000E81048600846006840F08070086000BFEF
:100470000C48006800F000700028F9D00948406876
:1004800020F00300074948600846406840F0020039
:10049000486000BF0348406800F00C000828F9D10C
:1004A0000CBD000000100240002002407047000018
:1004B00010B51348006840F0010011490860084673
:1004C0004068104908400E494860084600680E49D7
:1004D00008400B4908600846006820F48020086046
:1004E0000846406820F4FE0048604FF41F00886012
:1004F000FFF767FF4FF000600449086010BD00007F
:10050000001002400000FFF8FFFFF6FE08ED00E0DB
:1005100000BFFEE702E008C8121F08C1002AFAD196
:1005200070477047002001E001C1121F002AFBD173
:100530007047FFF779FEFFF78DFEFFF70BFE00BF58
:10054000FEE7000054050008000000200004000041
:040550002405000876
:0400000508000105E9
:00000001FF
